:020000040800F2
:10000000000003208D040008DD040008DD04000862
:10001000DD040008DD040008DD0400080000000025
:10002000000000000000000000000000DD040008E7
:10003000DD04000800000000DD040008DD04000805
:10004000DD040008DD040008DD040008DD0400080C
:10005000DD040008DD040008DD040008DD040008FC
:10006000DD040008DD040008DD040008DD040008EC
:10007000DD040008DD040008DD040008DD040008DC
:10008000DD040008DD040008DD040008DD040008CC
:10009000DD040008DD040008DD040008DD040008BC
:1000A000DD040008DD040008DD040008DD040008AC
:1000B000DD040008DD040008DD040008DD0400089C
:1000C000DD040008DD040008DD040008DD0400088C
:1000D000DD040008DD040008DD040008DD0400087C
:1000E000DD040008DD040008DD040008DD0400086C
:1000F000DD040008DD040008DD040008DD0400085C
:10010000DD040008DD040008DD040008DD0400084B
:10011000DD040008DD040008DD040008DD0400083B
:10012000DD040008DD040008DD040008DD0400082B
:10013000DD040008DD040008DD040008DD0400081B
:10014000DD040008DD040008DD040008DD0400080B
:10015000DD040008DD040008DD040008DD040008FB
:10016000DD040008DD040008DD040008DD040008EB
:10017000DD040008DD040008DD04000800000000C4
:10018000DD040008DD040008DD040008DD040008CB
:10019000DD040008DD040008DD040008DD040008BB
:0C01A000DD040008DD040008DD04000898
:1001AC0010B5054C237833B9044B13B10448AFF3A5
:1001BC0000800123237010BD00000020000000000F
:1001CC002805000808B5034B1BB103490348AFF3DE
:1001DC00008008BD00000000040000202805000875
:1001EC00034AD2F8883043F47003C2F88830704761
:1001FC0000ED00E070B582B000F07AF800F098F8ED
:10020C0000F0B6F800F0CEF800F0D6F800F0E8F800
:10021C0000F0F6F832E000BF019B01330193019B23
:10022C00B3F5FA6FF7DB2B4BD3F81038C3F340332D
:10023C009A4200D00023284A12780AB9002B3BD1ED
:10024C00254A1370234A4FF4803393614FF40031E5
:10025C00C2F8181C02F5805293619DF803001F4EE2
:10026C003278002100F0ECF832780121284600F0B9
:10027C00E7F832780221204600F0E2F8154BD3F86B
:10028C00102C02F001028DF803209DF80320D2B24D
:10029C0013490A701D69C5F30015124A1570124AEC
:1002AC001469C4F38004114A1470D3F81028C2F3F3
:1002BC00403200230193B2E708490A780132D2B2E6
:1002CC000A700A78D2B2022ABAD90A4600211170F1
:1002DC00B6E700BF000002401F00002020000020F5
:1002EC001E0000201D000020001002401C000020F9
:1002FC000D4AD2F8303843F00803C2F830380B4BB3
:10030C00D3F8002C42F00402C3F8002CD3F8082CCC
:10031C0042F00402C3F8082CD3F8182C42F4003233
:10032C00C3F8182C704700BF003002400000024098
:10033C000D4A136B43F0010313630C4B1A6842F024
:10034C0001021A605A6822F001025A609A6842F05F
:10035C0001029A60DA6822F00302DA609A6942F4C8
:10036C0080329A61704700BF0038024000000240A2
:10037C000A4AD2F8303843F01003C2F83038084B30
:10038C001A6842F001021A609A6842F001029A60FF
:10039C009A6942F480329A61704700BF0030024083
:1003AC0000100240034AD2F80C3C43F00103C2F89F
:1003BC000C3C704700000240084B1A6822F4404283
:1003CC001A605A6822F080025A60DA6822F44042BD
:1003DC00DA6042F48072DA60704700BF00000240BD
:1003EC00064B1A6822F030021A605A6822F0040296
:1003FC005A60DA6842F01002DA607047001002406E
:10040C000D4AD2F8303843F00403C2F830380B4BA5
:10041C00D3F8002822F04062C3F80028D3F804284F
:10042C0022F40052C3F80428D3F80C2842F00062DE
:10043C00C3F80C28704700BF003002400000024097
:10044C0098B90A440B4B83FB021303EB4303D31AF7
:10045C0013F0FF0304D1084B0222C3F8182C704789
:10046C00012B03D0054B01229A617047024B0122EC
:10047C009A617047565555550000024000100240D5
:10048C00DFF834D00D480E490E4A002302E0D45850
:10049C00C4500433C4188C42F9D30B4A0B4C0023C0
:1004AC0001E013600432A242FBD3FFF799FE00F087
:1004BC0011F8FFF79FFE704700000320000000209A
:1004CC000000002048050008000000202400002047
:1004DC00FEE7000070B50D4D0D4C641BA4100026FA
:1004EC00A64209D10B4D0C4C00F018F8641BA4105B
:1004FC000026A64205D170BD55F8043B984701363D
:10050C00EEE755F8043B98470136F2E74005000842
:10051C00400500084005000844050008F8B500BF78
:10052C00F8BC08BC9E467047F8B500BFF8BC08BCC8
:04053C009E46704720
:04054000D1010008DD
:04054400AD010008FD
:040000050800048D5E
:00000001FF
