:020000040800F2
:1000000000000320190A0008690A0008690A0008AC
:10001000690A0008690A0008690A0008000000006F
:10002000000000000000000000000000690A000855
:10003000690A000800000000690A00082109000898
:10004000690A0008690A0008690A0008690A0008C4
:10005000690A0008690A00085D090008690A0008C1
:10006000690A0008690A0008690A0008690A0008A4
:10007000690A0008690A0008690A0008690A000894
:10008000690A0008690A0008690A0008690A000884
:10009000690A0008690A0008690A00089D09000841
:1000A000690A0008690A0008690A0008690A000864
:1000B000690A0008690A0008690A0008690A000854
:1000C000690A0008690A0008690A0008690A000844
:1000D000690A0008690A0008690A0008690A000834
:1000E000690A0008690A0008690A0008690A000824
:1000F000690A0008690A0008690A0008690A000814
:10010000690A0008690A0008690A0008690A000803
:10011000690A0008690A0008690A0008690A0008F3
:10012000690A0008690A0008690A0008690A0008E3
:10013000690A0008690A0008690A0008690A0008D3
:10014000690A0008690A0008690A0008690A0008C3
:10015000690A0008690A0008690A0008690A0008B3
:10016000690A0008690A0008690A0008690A0008A3
:10017000690A0008690A0008690A0008000000000E
:10018000690A0008690A0008690A0008690A000883
:10019000690A0008690A0008690A0008690A000873
:0C01A000690A0008690A0008690A0008E2
:1001AC0010B5054C237833B9044B13B10448AFF3A5
:1001BC0000800123237010BD04000020000000000B
:1001CC00B40A000808B5034B1BB103490348AFF34D
:1001DC00008008BD0000000008000020B40A0008E0
:1001EC00034AD2F8883043F47003C2F88830704761
:1001FC0000ED00E0134B1B781BB3124B00221A705E
:10020C00114B1B7863B9114A13780133DBB21370AD
:10021C001378DBB2022B14D9134600221A707047E4
:10022C000B4B1B78DBB2052B0BD80A49CA5C01328D
:10023C00D2B2CA54CA5CD2B2022A02D90A460021EE
:10024C00D15470475D0000204E0000204C0000206F
:10025C0046000020400000200C4B1B783BB10B4BA0
:10026C0000221A700A4B1B78DBB2012B00D07047AE
:10027C00084A13780133DBB213701378DBB2052B09
:10028C00F5D9134600221A70F1E700BF5C0000207C
:10029C004E000020460000201B4B1B7803B9704712
:1002AC0010B5194B00221A70184C237883F00103F7
:1002BC00237000F0CBFA237843B9154A1370154A12
:1002CC001370154B1A68154B1A6010BD00F0BEFA6E
:1002DC00002309E0124A0021D1540F4A1168114A37
:1002EC0042F823100133DBB2052BF3D900230E4A5D
:1002FC0013700E4A13700E4A1370074A11680D4A98
:10030C0011600D4A1360E0E75E0000204E000020F3
:10031C004D0000204C00002064000020480000200C
:10032C002000002028000020460000206D00002046
:10033C006C000020700000206800002008B51E4BE7
:10034C001B785BB91D4B1A681D4B19781D4B53F864
:10035C0021101D4B1B68D31A8B4200D208BD1A4BBF
:10036C001A6000F073FA194B1B7803F0FF0243B1CB
:10037C00012A19D0002000F071FA052000F06EFA65
:10038C0005E0022000F06AFA032000F067FA0F4A39
:10039C0013780133DBB213701378DBB2022BDDD987
:1003AC00134600221A70D9E7012000F057FA0420F6
:1003BC0000F054FAEBE700BF4E0000206400002070
:1003CC004C000020D80A0008480000204D000020F6
:1003DC00424B1B78DBB2012B7FD170B5404B1D68B3
:1003EC00404B1B7853B13F4B1B78DBB2012B3AD0FF
:1003FC003C4B1B78DBB2022B6DD070BD3A4B1B789B
:10040C00DBB2052BF9D8394B1B68EB1AB3F5FA7F25
:10041C00F3D3354E3478E4B2344B1D60204600F0F3
:10042C001DFA334B01221A55324B43F824503378C2
:10043C001344DBB233703378DBB2052BDDD9294B97
:10044C001A702D4B1D60D8E70134E4B2052C0CD882
:10045C00274B1B5D002BF7D1204600F0FFF9244BF6
:10046C0001221A55F0E70024F0E7234B1B68EB1A26
:10047C00B3F57A7FC1D31B4B02221A70002304E020
:10048C001C4A42F823500133DBB2052BF8D9B4E7F0
:10049C00204600F011FA164B00221A550134E4B232
:1004AC00052CAAD8154B1A5D154B53F82220114B6D
:1004BC0053F82430EB1A9342F0D30E4B43F82450EC
:1004CC000B4B1B5D002BE3D1204600F0C7F9084B0A
:1004DC0001221A55E2E70024E2E770474E000020A3
:1004EC00640000206D0000206C00002070000020D3
:1004FC002000002028000020680000204000002080
:10050C00CC0A000808B500F03FF800F08FF800F0B6
:10051C0019F900F0A1F800F0CFF800F097F9134B9F
:10052C001A68134B1A6000230BE0104A1168114A29
:10053C0042F8231000221049CA541049CA540133FE
:10054C00DBB2052BF1D90E4B00221A7001E0FFF73C
:10055C00F5FEFFF7A1FEFFF74DFEFFF77DFE094B01
:10056C001B78002BF3D0FFF733FFF2E76400002079
:10057C00480000202800002020000020400000201F
:10058C00460000204E000020234B1A6C42F0805293
:10059C001A6422490A6842F440420A601A6842F41A
:1005AC0080321A601C4B1B6813F4003FFAD01C4AB3
:1005BC00136823F00F0343F005031360A2F5806268
:1005CC00936823F47C4323F0F00343F414439360C7
:1005DC00144B5360136843F0807313600E4B1B680D
:1005EC0013F0007FFAD00C4A936823F0030343F016
:1005FC0002039360084B9B6803F00C03082BF9D1A2
:10060C00054A136823F001031360074B02F14A42B9
:10061C0002F5A1321A6070470038024000700040A9
:10062C00003C024008544007000000204FF0E0233B
:10063C001A6922F001021A61064A5A6100229A6173
:10064C001A6922F007021A611A6942F007021A614C
:10065C00704700BF3F900200154A136B43F0010333
:10066C001363144B1A6822F003021A601A6822F4FE
:10067C0040621A601A6822F440521A605A6822F0DA
:10068C0001025A605A6822F020025A605A6822F01D
:10069C0040025A60DA6842F00102DA60DA6842F429
:1006AC008062DA60DA6842F48052DA60704700BF28
:1006BC0000380240000002401F4A536C43F4804350
:1006CC0053641E4B9A6822F00F029A60DA6822F08B
:1006DC00F002DA60DA6822F47062DA6003F58063A3
:1006EC00DA6842F00102DA609A6822F001029A603C
:1006FC00DA6842F02002DA609A6842F020029A60CE
:10070C00DA6842F04002DA609A6822F040029A609D
:10071C001A6842F061021A6061225A61084B502239
:10072C0083F8062340221A60602283F817234FF4C3
:10073C0000021A60704700BF0038024000380140C8
:10074C0000E100E03F4A136B43F0080313633E4B98
:10075C001A6842F004021A605A6822F002025A60C7
:10076C009A6842F008029A60DA6822F00C02DA60A9
:10077C009A6942F400329A611A6842F010021A60C7
:10078C005A6822F004025A609A6842F020029A6079
:10079C00DA6822F03002DA609A6942F480229A61B7
:1007AC001A6842F040021A605A6822F008025A6035
:1007BC009A6842F080029A60DA6822F0C002DA602D
:1007CC009A6942F400229A611A6842F480721A60A3
:1007DC005A6822F010025A609A6842F400729A60C9
:1007EC00DA6822F44072DA609A6942F480129A61F3
:1007FC001A6842F480521A605A6822F040025A6019
:10080C009A6842F400529A60DA6822F44052DA6034
:10081C009A6942F480029A611A6842F480421A6022
:10082C005A6822F080025A609A6842F400429A6038
:10083C00DA6822F44042DA609A6942F400029A6162
:10084C00704700BF00380240000C0240024A936916
:10085C0043F45E0393617047000C0240052827D8CF
:10086C00DFE800F003090F151B21124A936943F0CE
:10087C000203936170470F4A936943F00403936139
:10088C0070470C4A936943F0080393617047094A17
:10089C00936943F0100393617047064A936943F0E0
:1008AC00400393617047034A936943F0800393615B
:1008BC00704700BF000C0240052827D8DFE800F085
:1008CC0003090F151B21124A936943F400339361FA
:1008DC0070470F4A936943F48023936170470C4A25
:1008EC00936943F4002393617047094A936943F475
:1008FC00801393617047064A936943F480039361B4
:10090C007047034A936943F400039361704700BF37
:10091C00000C02400B4A1368013313600A4A138817
:10092C009BB201339BB2138013889BB2B3F57A7FD1
:10093C0006D3134600221A80044A1368013313604D
:10094C00704700BF6400002074000020600000208D
:10095C000B4B5B6913F0010F10D00A4B1A680A4B52
:10096C001B68D31AC72B04D9074B1A60074B0122FB
:10097C001A70034A536943F001035361704700BF77
:10098C00003C014064000020580000205E00002064
:10099C00174B1B68174A526912F0200F13D0164AD6
:1009AC0012689A1AC72A09D9134A1360134A126992
:1009BC0012F0200F02D1124A012111700D494A691F
:1009CC0042F020024A610B4A526912F0400F0ED0DD
:1009DC000C4A12689A1AC72A04D90A4A13600A4B9D
:1009EC0001221A70034A536943F040035361704764
:1009FC0064000020003C0140540000200000024034
:100A0C005D000020500000205C000020DFF834D096
:100A1C000D480E490E4A002302E0D458C45004334A
:100A2C00C4188C42F9D30B4A0B4C002301E0136021
:100A3C000432A242FBD3FFF7D3FB00F011F8FFF70F
:100A4C0061FD70470000032000000020040000201E
:100A5C00EC0A00080400002078000020FEE70000EB
:100A6C0070B50D4D0D4C641BA4100026A64209D187
:100A7C000B4D0C4C00F018F8641BA4100026A64279
:100A8C0005D170BD55F8043B98470136EEE755F893
:100A9C00043B98470136F2E7E40A0008E40A000830
:100AAC00E40A0008E80A0008F8B500BFF8BC08BC66
:100ABC009E467047F8B500BFF8BC08BC9E46704710
:100ACC00820600007102000065010000D0070000E2
:080ADC004C020000C7010000FC
:040AE400D101000834
:040AE800AD01000854
:040AEC000024F400EE
:0400000508000A19CC
:00000001FF
