:020000040800F2
:100000000000032081040008D1040008D104000886
:10001000D1040008D1040008D10400080000000049
:10002000000000000000000000000000D1040008F3
:10003000D104000800000000D1040008D104000829
:10004000D1040008D1040008D1040008D10400083C
:10005000D1040008D1040008D1040008D10400082C
:10006000D1040008D1040008D1040008D10400081C
:10007000D1040008D1040008D1040008D10400080C
:10008000D1040008D1040008D1040008D1040008FC
:10009000D1040008D1040008D1040008D1040008EC
:1000A000D1040008D1040008D1040008D1040008DC
:1000B000D1040008D1040008D1040008D1040008CC
:1000C000D1040008D1040008D1040008D1040008BC
:1000D000D1040008D1040008D1040008D1040008AC
:1000E00051040008D1040008D1040008D10400081C
:1000F000D1040008D1040008D1040008D10400088C
:10010000D1040008D1040008D1040008D10400087B
:10011000D1040008D1040008D1040008D10400086B
:10012000D1040008D1040008D1040008D10400085B
:10013000D1040008D1040008D1040008D10400084B
:10014000D1040008D1040008D1040008D10400083B
:10015000D1040008D1040008D1040008D10400082B
:10016000D1040008D1040008D1040008D10400081B
:10017000D1040008D1040008D104000800000000E8
:10018000D1040008D1040008D1040008D1040008FB
:10019000D1040008D1040008D1040008D1040008EB
:0C01A000D1040008D1040008D1040008BC
:1001AC0010B5054C237833B9044B13B10448AFF3A5
:1001BC0000800123237010BD00000020000000000F
:1001CC001C05000808B5034B1BB103490348AFF3EA
:1001DC00008008BD00000000040000201C05000881
:1001EC00034AD2F8883043F47003C2F88830704761
:1001FC0000ED00E008B500F063F800F0F1F81C4BDE
:10020C001A6B42F007021A631A6B42F002021A636D
:10021C00184A136843F480431360174B1A6842F46E
:10022C0000221A609A6842F440229A605A6A22F0BC
:10023C00F0025A62A3F500631A6842F400321A60A5
:10024C009A6842F440329A605A6A22F00F025A625B
:10025C0004E0084A936943F080039361074B1B78D1
:10026C00002BF6D1034A936943F400039361F5E73D
:10027C000038024000040240000802401C0000202C
:10028C0000B500F00700C0F1070CBCF1040F28BF4B
:10029C004FF0040C031D062B0FD9C31E4FF0FF3E6D
:1002AC000EFA0CF021EA000199400EFA03FE22EA44
:1002BC000E0241EA02005DF804FB0023EEE70000A9
:1002CC00444B1A6842F400221A609A6842F44022A5
:1002DC009A605A6A22F0F0025A623F4A136823F07D
:1002EC00F80343F080031360002393603A4B9B6840
:1002FC0013F00C0FFAD1384A136823F08073136093
:10030C00354B1B6813F0007FFAD1334A136823F482
:10031C0010231360304B1B6813F4003FFAD12E4BA3
:10032C001A6822F480221A601A6822F001021A60FC
:10033C001A6842F480321A60274B1B6813F4003F92
:10034C00FAD0254B1A6842F400221A6000225A6037
:10035C005A6842F480025A605A6842F004025A60A9
:10036C005A6842F4B4425A605A6842F480325A6075
:10037C005A6842F070625A609A6842F002029A60BF
:10038C009A689A609A6842F4A0529A609A6842F409
:10039C0000429A609A6842F4C0029A609A6822F00D
:1003AC0040429A609A6842F0C0629A609A6842F041
:1003BC0040529A6009490A6842F005020A601A68BC
:1003CC0042F080721A60044B1B6813F0007FFAD065
:1003DC00704700BF0008024000380240003C024059
:1003EC0008B5144A536C43F480435364A2F580322D
:1003FC00536943F0200353610F4B1A6842F40052C7
:10040C001A609A6842F400529A60DA6822F4005238
:10041C00DA600A4BD86800221146C0F30220FFF7BD
:10042C002FFF0001C0B2064B83F828034FF48072F3
:10043C005A6008BD00380240003C014000ED00E06D
:10044C0000E100E0084A536943F400535361074A42
:10045C0013780133DBB21370054A1378B3FA83F3C4
:10046C005B091370704700BF003C01401D00002069
:10047C001C000020DFF834D00D480E490E4A002332
:10048C0002E0D458C4500433C4188C42F9D30B4A3C
:10049C000B4C002301E013600432A242FBD3FFF7A4
:1004AC009FFE00F011F8FFF7A5FE70470000032037
:1004BC0000000020000000203C0500080000002087
:1004CC0020000020FEE7000070B50D4D0D4C641BA4
:1004DC00A4100026A64209D10B4D0C4C00F018F8C4
:1004EC00641BA4100026A64205D170BD55F8043B30
:1004FC0098470136EEE755F8043B98470136F2E78A
:10050C0034050008340500083405000838050008D7
:10051C00F8B500BFF8BC08BC9E467047F8B500BFE4
:08052C00F8BC08BC9E467047B4
:04053400D1010008E9
:04053800AD01000809
:04000005080004816A
:00000001FF
